{"contracts/Actor.sol":{"Actor":{"abi":[{"inputs":[{"internalType":"string","name":"_mainchainAddress","type":"string"},{"internalType":"enum L1Type","name":"_l1Type","type":"uint8"}],"stateMutability":"nonpayable","type":"constructor"},{"anonymous":false,"inputs":[{"indexed":false,"internalType":"bool","name":"success","type":"bool"}],"name":"Response","type":"event"},{"inputs":[{"internalType":"bytes","name":"signature","type":"bytes"},{"internalType":"bytes","name":"key","type":"bytes"}],"name":"execute","outputs":[],"stateMutability":"nonpayable","type":"function"},{"inputs":[],"name":"mainchainAddress","outputs":[{"internalType":"string","name":"","type":"string"}],"stateMutability":"view","type":"function"},{"inputs":[],"name":"nonce","outputs":[{"internalType":"uint256","name":"","type":"uint256"}],"stateMutability":"view","type":"function"},{"stateMutability":"payable","type":"receive"}],"evm":{"bytecode":{"linkReferences":{},"object":"60806040523480156200001157600080fd5b5060405162000e9b38038062000e9b833981016040819052620000349162000104565b60008251116200008a5760405162461bcd60e51b815260206004820152601960248201527f496e76616c6964206d61696e636861696e206164647265737300000000000000604482015260640160405180910390fd5b60016200009883826200027b565b506003805482919060ff191660018381811115620000ba57620000ba62000347565b021790555050600080546001600160a01b03191633179055506200035d565b634e487b7160e01b600052604160045260246000fd5b805160028110620000ff57600080fd5b919050565b600080604083850312156200011857600080fd5b82516001600160401b03808211156200013057600080fd5b818501915085601f8301126200014557600080fd5b8151818111156200015a576200015a620000d9565b604051601f8201601f19908116603f01168101908382118183101715620001855762000185620000d9565b81604052828152602093508884848701011115620001a257600080fd5b600091505b82821015620001c65784820184015181830185015290830190620001a7565b6000848483010152809650505050620001e1818601620000ef565b925050509250929050565b600181811c908216806200020157607f821691505b6020821081036200022257634e487b7160e01b600052602260045260246000fd5b50919050565b601f8211156200027657600081815260208120601f850160051c81016020861015620002515750805b601f850160051c820191505b8181101562000272578281556001016200025d565b5050505b505050565b81516001600160401b03811115620002975762000297620000d9565b620002af81620002a88454620001ec565b8462000228565b602080601f831160018114620002e75760008415620002ce5750858301515b600019600386901b1c1916600185901b17855562000272565b600085815260208120601f198616915b828110156200031857888601518255948401946001909101908401620002f7565b5085821015620003375787850151600019600388901b60f8161c191681555b5050505050600190811b01905550565b634e487b7160e01b600052602160045260246000fd5b610b2e806200036d6000396000f3fe6080604052600436106100385760003560e01c80631f6a1eb914610044578063affed0e014610066578063d75b501c1461008f57600080fd5b3661003f57005b600080fd5b34801561005057600080fd5b5061006461005f36600461069f565b6100b1565b005b34801561007257600080fd5b5061007c60025481565b6040519081526020015b60405180910390f35b34801561009b57600080fd5b506100a461052b565b604051610086919061072f565b6002541580156100cb57506000546001600160a01b031633145b806100d557503332145b6101265760405162461bcd60e51b815260206004820152601f60248201527f4f6e6c7920666163746f7279206f7220454f412063616e20657865637574650060448201526064015b60405180910390fd5b60006101306105b9565b9050600061013c6105f1565b9050600061014a8284610778565b600354604051632f0853a360e01b81529192506000918291606791632f0853a3916101889160ff909116908d908d908d908d906001906004016107ee565b600060405180830381865afa1580156101a5573d6000803e3d6000fd5b505050506040513d6000823e601f3d908101601f191682016040526101cd919081019061098c565b915091508161021e5760405162461bcd60e51b815260206004820152601d60248201527f5369676e617475726520766572696669636174696f6e206661696c6564000000604482015260640161011d565b60008060008060008060008780602001905181019061023d91906109fe565b9650965096509650965096509650306001600160a01b0316876001600160a01b03161461029c5760405162461bcd60e51b815260206004820152600d60248201526c08ce4deda40dad2e6dac2e8c6d609b1b604482015260640161011d565b898314806102b457506002541580156102b457508b83145b6102f55760405162461bcd60e51b815260206004820152601260248201527108ec2e640d8d2dad2e840dad2e6dac2e8c6d60731b604482015260640161011d565b3a82146103395760405162461bcd60e51b815260206004820152601260248201527108ec2e640e0e4d2c6ca40dad2e6dac2e8c6d60731b604482015260640161011d565b6001600160a01b03851661038f5760405162461bcd60e51b815260206004820152601960248201527f546f20616464726573732063616e6e6f74206265207a65726f00000000000000604482015260640161011d565b60025486146103d15760405162461bcd60e51b815260206004820152600e60248201526d09cdedcc6ca40dad2e6dac2e8c6d60931b604482015260640161011d565b600280549060006103e183610a83565b91905055506000856001600160a01b031685613a985a6104019190610a9c565b90846040516104109190610aaf565b600060405180830381858888f193505050503d806000811461044e576040519150601f19603f3d011682016040523d82523d6000602084013e610453565b606091505b505090507fb6caad5b328a3de9a49b44605241a4b72f6f1aa955829d12e37decfd84a0b8ca8160405161048a911515815260200190565b60405180910390a1600060ec611a905a6104a4908f610a9c565b6104ae9190610778565b6104b89190610778565b90506000326104c73a84610acb565b604051600081818185875af1925050503d8060008114610503576040519150601f19603f3d011682016040523d82523d6000602084013e610508565b606091505b505090508061051657600080fd5b50505050505050505050505050505050505050565b60018054610538906107ba565b80601f0160208091040260200160405190810160405280929190818152602001828054610564906107ba565b80156105b15780601f10610586576101008083540402835291602001916105b1565b820191906000526020600020905b81548152906001019060200180831161059457829003601f168201915b505050505081565b7f0dca280ea3ca230b21284a5a56a2293bf036acd4796ead208ee9bbec18cead2780546000916105ea600283610778565b9250505090565b6000615208815b36811015610650576000368281811061061357610613610ae2565b909101356001600160f81b03191615905061062f576010610632565b60045b61063c9083610778565b91508061064881610a83565b9150506105f8565b50919050565b60008083601f84011261066857600080fd5b50813567ffffffffffffffff81111561068057600080fd5b60208301915083602082850101111561069857600080fd5b9250929050565b600080600080604085870312156106b557600080fd5b843567ffffffffffffffff808211156106cd57600080fd5b6106d988838901610656565b909650945060208701359150808211156106f257600080fd5b506106ff87828801610656565b95989497509550505050565b60005b8381101561072657818101518382015260200161070e565b50506000910152565b602081526000825180602084015261074e81604085016020870161070b565b601f01601f19169190910160400192915050565b634e487b7160e01b600052601160045260246000fd5b8082018082111561078b5761078b610762565b92915050565b81835281816020850137506000828201602090810191909152601f909101601f19169091010190565b600181811c908216806107ce57607f821691505b60208210810361065057634e487b7160e01b600052602260045260246000fd5b60006002881061080e57634e487b7160e01b600052602160045260246000fd5b878252602060808184015261082760808401888a610791565b838103604085015261083a818789610791565b905083810360608501526000855481600182811c91508083168061085f57607f831692505b868310810361087c57634e487b7160e01b85526022600452602485fd5b82865260208601955080801561089957600181146108af576108da565b60ff198516875283151560051b870195506108da565b60008b81526020902060005b858110156108d4578154898201529084019089016108bb565b88019650505b50939e9d5050505050505050505050505050565b634e487b7160e01b600052604160045260246000fd5b600082601f83011261091557600080fd5b815167ffffffffffffffff80821115610930576109306108ee565b604051601f8301601f19908116603f01168101908282118183101715610958576109586108ee565b8160405283815286602085880101111561097157600080fd5b61098284602083016020890161070b565b9695505050505050565b6000806040838503121561099f57600080fd5b825180151581146109af57600080fd5b602084015190925067ffffffffffffffff8111156109cc57600080fd5b6109d885828601610904565b9150509250929050565b80516001600160a01b03811681146109f957600080fd5b919050565b600080600080600080600060e0888a031215610a1957600080fd5b610a22886109e2565b965060208801519550610a37604089016109e2565b9450606088015193506080880151925060a0880151915060c088015167ffffffffffffffff811115610a6857600080fd5b610a748a828b01610904565b91505092959891949750929550565b600060018201610a9557610a95610762565b5060010190565b8181038181111561078b5761078b610762565b60008251610ac181846020870161070b565b9190910192915050565b808202811582820484141761078b5761078b610762565b634e487b7160e01b600052603260045260246000fdfea26469706673582212202b89ac7d3fdc5916bd73be26554a3c603b4c3be7350017ded26a28f52f52a55a64736f6c63430008120033","opcodes":"PUSH1 0x80 PUSH1 0x40 MSTORE CALLVALUE DUP1 ISZERO PUSH3 0x11 JUMPI PUSH1 0x0 DUP1 REVERT JUMPDEST POP PUSH1 0x40 MLOAD PUSH3 0xE9B CODESIZE SUB DUP1 PUSH3 0xE9B DUP4 CODECOPY DUP2 ADD PUSH1 0x40 DUP2 SWAP1 MSTORE PUSH3 0x34 SWAP2 PUSH3 0x104 JUMP JUMPDEST PUSH1 0x0 DUP3 MLOAD GT PUSH3 0x8A JUMPI PUSH1 0x40 MLOAD PUSH3 0x461BCD PUSH1 0xE5 SHL DUP2 MSTORE PUSH1 0x20 PUSH1 0x4 DUP3 ADD MSTORE PUSH1 0x19 PUSH1 0x24 DUP3 ADD MSTORE PUSH32 0x496E76616C6964206D61696E636861696E206164647265737300000000000000 PUSH1 0x44 DUP3 ADD MSTORE PUSH1 0x64 ADD PUSH1 0x40 MLOAD DUP1 SWAP2 SUB SWAP1 REVERT JUMPDEST PUSH1 0x1 PUSH3 0x98 DUP4 DUP3 PUSH3 0x27B JUMP JUMPDEST POP PUSH1 0x3 DUP1 SLOAD DUP3 SWAP2 SWAP1 PUSH1 0xFF NOT AND PUSH1 0x1 DUP4 DUP2 DUP2 GT ISZERO PUSH3 0xBA JUMPI PUSH3 0xBA PUSH3 0x347 JUMP JUMPDEST MUL OR SWAP1 SSTORE POP POP PUSH1 0x0 DUP1 SLOAD PUSH1 0x1 PUSH1 0x1 PUSH1 0xA0 SHL SUB NOT AND CALLER OR SWAP1 SSTORE POP PUSH3 0x35D JUMP JUMPDEST PUSH4 0x4E487B71 PUSH1 0xE0 SHL PUSH1 0x0 MSTORE PUSH1 0x41 PUSH1 0x4 MSTORE PUSH1 0x24 PUSH1 0x0 REVERT JUMPDEST DUP1 MLOAD PUSH1 0x2 DUP2 LT PUSH3 0xFF JUMPI PUSH1 0x0 DUP1 REVERT JUMPDEST SWAP2 SWAP1 POP JUMP JUMPDEST PUSH1 0x0 DUP1 PUSH1 0x40 DUP4 DUP6 SUB SLT ISZERO PUSH3 0x118 JUMPI PUSH1 0x0 DUP1 REVERT JUMPDEST DUP3 MLOAD PUSH1 0x1 PUSH1 0x1 PUSH1 0x40 SHL SUB DUP1 DUP3 GT ISZERO PUSH3 0x130 JUMPI PUSH1 0x0 DUP1 REVERT JUMPDEST DUP2 DUP6 ADD SWAP2 POP DUP6 PUSH1 0x1F DUP4 ADD SLT PUSH3 0x145 JUMPI PUSH1 0x0 DUP1 REVERT JUMPDEST DUP2 MLOAD DUP2 DUP2 GT ISZERO PUSH3 0x15A JUMPI PUSH3 0x15A PUSH3 0xD9 JUMP JUMPDEST PUSH1 0x40 MLOAD PUSH1 0x1F DUP3 ADD PUSH1 0x1F NOT SWAP1 DUP2 AND PUSH1 0x3F ADD AND DUP2 ADD SWAP1 DUP4 DUP3 GT DUP2 DUP4 LT OR ISZERO PUSH3 0x185 JUMPI PUSH3 0x185 PUSH3 0xD9 JUMP JUMPDEST DUP2 PUSH1 0x40 MSTORE DUP3 DUP2 MSTORE PUSH1 0x20 SWAP4 POP DUP9 DUP5 DUP5 DUP8 ADD ADD GT ISZERO PUSH3 0x1A2 JUMPI PUSH1 0x0 DUP1 REVERT JUMPDEST PUSH1 0x0 SWAP2 POP JUMPDEST DUP3 DUP3 LT ISZERO PUSH3 0x1C6 JUMPI DUP5 DUP3 ADD DUP5 ADD MLOAD DUP2 DUP4 ADD DUP6 ADD MSTORE SWAP1 DUP4 ADD SWAP1 PUSH3 0x1A7 JUMP JUMPDEST PUSH1 0x0 DUP5 DUP5 DUP4 ADD ADD MSTORE DUP1 SWAP7 POP POP POP POP PUSH3 0x1E1 DUP2 DUP7 ADD PUSH3 0xEF JUMP JUMPDEST SWAP3 POP POP POP SWAP3 POP SWAP3 SWAP1 POP JUMP JUMPDEST PUSH1 0x1 DUP2 DUP2 SHR SWAP1 DUP3 AND DUP1 PUSH3 0x201 JUMPI PUSH1 0x7F DUP3 AND SWAP2 POP JUMPDEST PUSH1 0x20 DUP3 LT DUP2 SUB PUSH3 0x222 JUMPI PUSH4 0x4E487B71 PUSH1 0xE0 SHL PUSH1 0x0 MSTORE PUSH1 0x22 PUSH1 0x4 MSTORE PUSH1 0x24 PUSH1 0x0 REVERT JUMPDEST POP SWAP2 SWAP1 POP JUMP JUMPDEST PUSH1 0x1F DUP3 GT ISZERO PUSH3 0x276 JUMPI PUSH1 0x0 DUP2 DUP2 MSTORE PUSH1 0x20 DUP2 KECCAK256 PUSH1 0x1F DUP6 ADD PUSH1 0x5 SHR DUP2 ADD PUSH1 0x20 DUP7 LT ISZERO PUSH3 0x251 JUMPI POP DUP1 JUMPDEST PUSH1 0x1F DUP6 ADD PUSH1 0x5 SHR DUP3 ADD SWAP2 POP JUMPDEST DUP2 DUP2 LT ISZERO PUSH3 0x272 JUMPI DUP3 DUP2 SSTORE PUSH1 0x1 ADD PUSH3 0x25D JUMP JUMPDEST POP POP POP JUMPDEST POP POP POP JUMP JUMPDEST DUP2 MLOAD PUSH1 0x1 PUSH1 0x1 PUSH1 0x40 SHL SUB DUP2 GT ISZERO PUSH3 0x297 JUMPI PUSH3 0x297 PUSH3 0xD9 JUMP JUMPDEST PUSH3 0x2AF DUP2 PUSH3 0x2A8 DUP5 SLOAD PUSH3 0x1EC JUMP JUMPDEST DUP5 PUSH3 0x228 JUMP JUMPDEST PUSH1 0x20 DUP1 PUSH1 0x1F DUP4 GT PUSH1 0x1 DUP2 EQ PUSH3 0x2E7 JUMPI PUSH1 0x0 DUP5 ISZERO PUSH3 0x2CE JUMPI POP DUP6 DUP4 ADD MLOAD JUMPDEST PUSH1 0x0 NOT PUSH1 0x3 DUP7 SWAP1 SHL SHR NOT AND PUSH1 0x1 DUP6 SWAP1 SHL OR DUP6 SSTORE PUSH3 0x272 JUMP JUMPDEST PUSH1 0x0 DUP6 DUP2 MSTORE PUSH1 0x20 DUP2 KECCAK256 PUSH1 0x1F NOT DUP7 AND SWAP2 JUMPDEST DUP3 DUP2 LT ISZERO PUSH3 0x318 JUMPI DUP9 DUP7 ADD MLOAD DUP3 SSTORE SWAP5 DUP5 ADD SWAP5 PUSH1 0x1 SWAP1 SWAP2 ADD SWAP1 DUP5 ADD PUSH3 0x2F7 JUMP JUMPDEST POP DUP6 DUP3 LT ISZERO PUSH3 0x337 JUMPI DUP8 DUP6 ADD MLOAD PUSH1 0x0 NOT PUSH1 0x3 DUP9 SWAP1 SHL PUSH1 0xF8 AND SHR NOT AND DUP2 SSTORE JUMPDEST POP POP POP POP POP PUSH1 0x1 SWAP1 DUP2 SHL ADD SWAP1 SSTORE POP JUMP JUMPDEST PUSH4 0x4E487B71 PUSH1 0xE0 SHL PUSH1 0x0 MSTORE PUSH1 0x21 PUSH1 0x4 MSTORE PUSH1 0x24 PUSH1 0x0 REVERT JUMPDEST PUSH2 0xB2E DUP1 PUSH3 0x36D PUSH1 0x0 CODECOPY PUSH1 0x0 RETURN INVALID PUSH1 0x80 PUSH1 0x40 MSTORE PUSH1 0x4 CALLDATASIZE LT PUSH2 0x38 JUMPI PUSH1 0x0 CALLDATALOAD PUSH1 0xE0 SHR DUP1 PUSH4 0x1F6A1EB9 EQ PUSH2 0x44 JUMPI DUP1 PUSH4 0xAFFED0E0 EQ PUSH2 0x66 JUMPI DUP1 PUSH4 0xD75B501C EQ PUSH2 0x8F JUMPI PUSH1 0x0 DUP1 REVERT JUMPDEST CALLDATASIZE PUSH2 0x3F JUMPI STOP JUMPDEST PUSH1 0x0 DUP1 REVERT JUMPDEST CALLVALUE DUP1 ISZERO PUSH2 0x50 JUMPI PUSH1 0x0 DUP1 REVERT JUMPDEST POP PUSH2 0x64 PUSH2 0x5F CALLDATASIZE PUSH1 0x4 PUSH2 0x69F JUMP JUMPDEST PUSH2 0xB1 JUMP JUMPDEST STOP JUMPDEST CALLVALUE DUP1 ISZERO PUSH2 0x72 JUMPI PUSH1 0x0 DUP1 REVERT JUMPDEST POP PUSH2 0x7C PUSH1 0x2 SLOAD DUP2 JUMP JUMPDEST PUSH1 0x40 MLOAD SWAP1 DUP2 MSTORE PUSH1 0x20 ADD JUMPDEST PUSH1 0x40 MLOAD DUP1 SWAP2 SUB SWAP1 RETURN JUMPDEST CALLVALUE DUP1 ISZERO PUSH2 0x9B JUMPI PUSH1 0x0 DUP1 REVERT JUMPDEST POP PUSH2 0xA4 PUSH2 0x52B JUMP JUMPDEST PUSH1 0x40 MLOAD PUSH2 0x86 SWAP2 SWAP1 PUSH2 0x72F JUMP JUMPDEST PUSH1 0x2 SLOAD ISZERO DUP1 ISZERO PUSH2 0xCB JUMPI POP PUSH1 0x0 SLOAD PUSH1 0x1 PUSH1 0x1 PUSH1 0xA0 SHL SUB AND CALLER EQ JUMPDEST DUP1 PUSH2 0xD5 JUMPI POP CALLER ORIGIN EQ JUMPDEST PUSH2 0x126 JUMPI PUSH1 0x40 MLOAD PUSH3 0x461BCD PUSH1 0xE5 SHL DUP2 MSTORE PUSH1 0x20 PUSH1 0x4 DUP3 ADD MSTORE PUSH1 0x1F PUSH1 0x24 DUP3 ADD MSTORE PUSH32 0x4F6E6C7920666163746F7279206F7220454F412063616E206578656375746500 PUSH1 0x44 DUP3 ADD MSTORE PUSH1 0x64 ADD JUMPDEST PUSH1 0x40 MLOAD DUP1 SWAP2 SUB SWAP1 REVERT JUMPDEST PUSH1 0x0 PUSH2 0x130 PUSH2 0x5B9 JUMP JUMPDEST SWAP1 POP PUSH1 0x0 PUSH2 0x13C PUSH2 0x5F1 JUMP JUMPDEST SWAP1 POP PUSH1 0x0 PUSH2 0x14A DUP3 DUP5 PUSH2 0x778 JUMP JUMPDEST PUSH1 0x3 SLOAD PUSH1 0x40 MLOAD PUSH4 0x2F0853A3 PUSH1 0xE0 SHL DUP2 MSTORE SWAP2 SWAP3 POP PUSH1 0x0 SWAP2 DUP3 SWAP2 PUSH1 0x67 SWAP2 PUSH4 0x2F0853A3 SWAP2 PUSH2 0x188 SWAP2 PUSH1 0xFF SWAP1 SWAP2 AND SWAP1 DUP14 SWAP1 DUP14 SWAP1 DUP14 SWAP1 DUP14 SWAP1 PUSH1 0x1 SWAP1 PUSH1 0x4 ADD PUSH2 0x7EE JUMP JUMPDEST PUSH1 0x0 PUSH1 0x40 MLOAD DUP1 DUP4 SUB DUP2 DUP7 GAS STATICCALL ISZERO DUP1 ISZERO PUSH2 0x1A5 JUMPI RETURNDATASIZE PUSH1 0x0 DUP1 RETURNDATACOPY RETURNDATASIZE PUSH1 0x0 REVERT JUMPDEST POP POP POP POP PUSH1 0x40 MLOAD RETURNDATASIZE PUSH1 0x0 DUP3 RETURNDATACOPY PUSH1 0x1F RETURNDATASIZE SWAP1 DUP2 ADD PUSH1 0x1F NOT AND DUP3 ADD PUSH1 0x40 MSTORE PUSH2 0x1CD SWAP2 SWAP1 DUP2 ADD SWAP1 PUSH2 0x98C JUMP JUMPDEST SWAP2 POP SWAP2 POP DUP2 PUSH2 0x21E JUMPI PUSH1 0x40 MLOAD PUSH3 0x461BCD PUSH1 0xE5 SHL DUP2 MSTORE PUSH1 0x20 PUSH1 0x4 DUP3 ADD MSTORE PUSH1 0x1D PUSH1 0x24 DUP3 ADD MSTORE PUSH32 0x5369676E617475726520766572696669636174696F6E206661696C6564000000 PUSH1 0x44 DUP3 ADD MSTORE PUSH1 0x64 ADD PUSH2 0x11D JUMP JUMPDEST PUSH1 0x0 DUP1 PUSH1 0x0 DUP1 PUSH1 0x0 DUP1 PUSH1 0x0 DUP8 DUP1 PUSH1 0x20 ADD SWAP1 MLOAD DUP2 ADD SWAP1 PUSH2 0x23D SWAP2 SWAP1 PUSH2 0x9FE JUMP JUMPDEST SWAP7 POP SWAP7 POP SWAP7 POP SWAP7 POP SWAP7 POP SWAP7 POP SWAP7 POP ADDRESS PUSH1 0x1 PUSH1 0x1 PUSH1 0xA0 SHL SUB AND DUP8 PUSH1 0x1 PUSH1 0x1 PUSH1 0xA0 SHL SUB AND EQ PUSH2 0x29C JUMPI PUSH1 0x40 MLOAD PUSH3 0x461BCD PUSH1 0xE5 SHL DUP2 MSTORE PUSH1 0x20 PUSH1 0x4 DUP3 ADD MSTORE PUSH1 0xD PUSH1 0x24 DUP3 ADD MSTORE PUSH13 0x8CE4DEDA40DAD2E6DAC2E8C6D PUSH1 0x9B SHL PUSH1 0x44 DUP3 ADD MSTORE PUSH1 0x64 ADD PUSH2 0x11D JUMP JUMPDEST DUP10 DUP4 EQ DUP1 PUSH2 0x2B4 JUMPI POP PUSH1 0x2 SLOAD ISZERO DUP1 ISZERO PUSH2 0x2B4 JUMPI POP DUP12 DUP4 EQ JUMPDEST PUSH2 0x2F5 JUMPI PUSH1 0x40 MLOAD PUSH3 0x461BCD PUSH1 0xE5 SHL DUP2 MSTORE PUSH1 0x20 PUSH1 0x4 DUP3 ADD MSTORE PUSH1 0x12 PUSH1 0x24 DUP3 ADD MSTORE PUSH18 0x8EC2E640D8D2DAD2E840DAD2E6DAC2E8C6D PUSH1 0x73 SHL PUSH1 0x44 DUP3 ADD MSTORE PUSH1 0x64 ADD PUSH2 0x11D JUMP JUMPDEST GASPRICE DUP3 EQ PUSH2 0x339 JUMPI PUSH1 0x40 MLOAD PUSH3 0x461BCD PUSH1 0xE5 SHL DUP2 MSTORE PUSH1 0x20 PUSH1 0x4 DUP3 ADD MSTORE PUSH1 0x12 PUSH1 0x24 DUP3 ADD MSTORE PUSH18 0x8EC2E640E0E4D2C6CA40DAD2E6DAC2E8C6D PUSH1 0x73 SHL PUSH1 0x44 DUP3 ADD MSTORE PUSH1 0x64 ADD PUSH2 0x11D JUMP JUMPDEST PUSH1 0x1 PUSH1 0x1 PUSH1 0xA0 SHL SUB DUP6 AND PUSH2 0x38F JUMPI PUSH1 0x40 MLOAD PUSH3 0x461BCD PUSH1 0xE5 SHL DUP2 MSTORE PUSH1 0x20 PUSH1 0x4 DUP3 ADD MSTORE PUSH1 0x19 PUSH1 0x24 DUP3 ADD MSTORE PUSH32 0x546F20616464726573732063616E6E6F74206265207A65726F00000000000000 PUSH1 0x44 DUP3 ADD MSTORE PUSH1 0x64 ADD PUSH2 0x11D JUMP JUMPDEST PUSH1 0x2 SLOAD DUP7 EQ PUSH2 0x3D1 JUMPI PUSH1 0x40 MLOAD PUSH3 0x461BCD PUSH1 0xE5 SHL DUP2 MSTORE PUSH1 0x20 PUSH1 0x4 DUP3 ADD MSTORE PUSH1 0xE PUSH1 0x24 DUP3 ADD MSTORE PUSH14 0x9CDEDCC6CA40DAD2E6DAC2E8C6D PUSH1 0x93 SHL PUSH1 0x44 DUP3 ADD MSTORE PUSH1 0x64 ADD PUSH2 0x11D JUMP JUMPDEST PUSH1 0x2 DUP1 SLOAD SWAP1 PUSH1 0x0 PUSH2 0x3E1 DUP4 PUSH2 0xA83 JUMP JUMPDEST SWAP2 SWAP1 POP SSTORE POP PUSH1 0x0 DUP6 PUSH1 0x1 PUSH1 0x1 PUSH1 0xA0 SHL SUB AND DUP6 PUSH2 0x3A98 GAS PUSH2 0x401 SWAP2 SWAP1 PUSH2 0xA9C JUMP JUMPDEST SWAP1 DUP5 PUSH1 0x40 MLOAD PUSH2 0x410 SWAP2 SWAP1 PUSH2 0xAAF JUMP JUMPDEST PUSH1 0x0 PUSH1 0x40 MLOAD DUP1 DUP4 SUB DUP2 DUP6 DUP9 DUP9 CALL SWAP4 POP POP POP POP RETURNDATASIZE DUP1 PUSH1 0x0 DUP2 EQ PUSH2 0x44E JUMPI PUSH1 0x40 MLOAD SWAP2 POP PUSH1 0x1F NOT PUSH1 0x3F RETURNDATASIZE ADD AND DUP3 ADD PUSH1 0x40 MSTORE RETURNDATASIZE DUP3 MSTORE RETURNDATASIZE PUSH1 0x0 PUSH1 0x20 DUP5 ADD RETURNDATACOPY PUSH2 0x453 JUMP JUMPDEST PUSH1 0x60 SWAP2 POP JUMPDEST POP POP SWAP1 POP PUSH32 0xB6CAAD5B328A3DE9A49B44605241A4B72F6F1AA955829D12E37DECFD84A0B8CA DUP2 PUSH1 0x40 MLOAD PUSH2 0x48A SWAP2 ISZERO ISZERO DUP2 MSTORE PUSH1 0x20 ADD SWAP1 JUMP JUMPDEST PUSH1 0x40 MLOAD DUP1 SWAP2 SUB SWAP1 LOG1 PUSH1 0x0 PUSH1 0xEC PUSH2 0x1A90 GAS PUSH2 0x4A4 SWAP1 DUP16 PUSH2 0xA9C JUMP JUMPDEST PUSH2 0x4AE SWAP2 SWAP1 PUSH2 0x778 JUMP JUMPDEST PUSH2 0x4B8 SWAP2 SWAP1 PUSH2 0x778 JUMP JUMPDEST SWAP1 POP PUSH1 0x0 ORIGIN PUSH2 0x4C7 GASPRICE DUP5 PUSH2 0xACB JUMP JUMPDEST PUSH1 0x40 MLOAD PUSH1 0x0 DUP2 DUP2 DUP2 DUP6 DUP8 GAS CALL SWAP3 POP POP POP RETURNDATASIZE DUP1 PUSH1 0x0 DUP2 EQ PUSH2 0x503 JUMPI PUSH1 0x40 MLOAD SWAP2 POP PUSH1 0x1F NOT PUSH1 0x3F RETURNDATASIZE ADD AND DUP3 ADD PUSH1 0x40 MSTORE RETURNDATASIZE DUP3 MSTORE RETURNDATASIZE PUSH1 0x0 PUSH1 0x20 DUP5 ADD RETURNDATACOPY PUSH2 0x508 JUMP JUMPDEST PUSH1 0x60 SWAP2 POP JUMPDEST POP POP SWAP1 POP DUP1 PUSH2 0x516 JUMPI PUSH1 0x0 DUP1 REVERT JUMPDEST POP POP POP POP POP POP POP POP POP POP POP POP POP POP POP POP POP POP POP JUMP JUMPDEST PUSH1 0x1 DUP1 SLOAD PUSH2 0x538 SWAP1 PUSH2 0x7BA JUMP JUMPDEST DUP1 PUSH1 0x1F ADD PUSH1 0x20 DUP1 SWAP2 DIV MUL PUSH1 0x20 ADD PUSH1 0x40 MLOAD SWAP1 DUP2 ADD PUSH1 0x40 MSTORE DUP1 SWAP3 SWAP2 SWAP1 DUP2 DUP2 MSTORE PUSH1 0x20 ADD DUP3 DUP1 SLOAD PUSH2 0x564 SWAP1 PUSH2 0x7BA JUMP JUMPDEST DUP1 ISZERO PUSH2 0x5B1 JUMPI DUP1 PUSH1 0x1F LT PUSH2 0x586 JUMPI PUSH2 0x100 DUP1 DUP4 SLOAD DIV MUL DUP4 MSTORE SWAP2 PUSH1 0x20 ADD SWAP2 PUSH2 0x5B1 JUMP JUMPDEST DUP3 ADD SWAP2 SWAP1 PUSH1 0x0 MSTORE PUSH1 0x20 PUSH1 0x0 KECCAK256 SWAP1 JUMPDEST DUP2 SLOAD DUP2 MSTORE SWAP1 PUSH1 0x1 ADD SWAP1 PUSH1 0x20 ADD DUP1 DUP4 GT PUSH2 0x594 JUMPI DUP3 SWAP1 SUB PUSH1 0x1F AND DUP3 ADD SWAP2 JUMPDEST POP POP POP POP POP DUP2 JUMP JUMPDEST PUSH32 0xDCA280EA3CA230B21284A5A56A2293BF036ACD4796EAD208EE9BBEC18CEAD27 DUP1 SLOAD PUSH1 0x0 SWAP2 PUSH2 0x5EA PUSH1 0x2 DUP4 PUSH2 0x778 JUMP JUMPDEST SWAP3 POP POP POP SWAP1 JUMP JUMPDEST PUSH1 0x0 PUSH2 0x5208 DUP2 JUMPDEST CALLDATASIZE DUP2 LT ISZERO PUSH2 0x650 JUMPI PUSH1 0x0 CALLDATASIZE DUP3 DUP2 DUP2 LT PUSH2 0x613 JUMPI PUSH2 0x613 PUSH2 0xAE2 JUMP JUMPDEST SWAP1 SWAP2 ADD CALLDATALOAD PUSH1 0x1 PUSH1 0x1 PUSH1 0xF8 SHL SUB NOT AND ISZERO SWAP1 POP PUSH2 0x62F JUMPI PUSH1 0x10 PUSH2 0x632 JUMP JUMPDEST PUSH1 0x4 JUMPDEST PUSH2 0x63C SWAP1 DUP4 PUSH2 0x778 JUMP JUMPDEST SWAP2 POP DUP1 PUSH2 0x648 DUP2 PUSH2 0xA83 JUMP JUMPDEST SWAP2 POP POP PUSH2 0x5F8 JUMP JUMPDEST POP SWAP2 SWAP1 POP JUMP JUMPDEST PUSH1 0x0 DUP1 DUP4 PUSH1 0x1F DUP5 ADD SLT PUSH2 0x668 JUMPI PUSH1 0x0 DUP1 REVERT JUMPDEST POP DUP2 CALLDATALOAD PUSH8 0xFFFFFFFFFFFFFFFF DUP2 GT ISZERO PUSH2 0x680 JUMPI PUSH1 0x0 DUP1 REVERT JUMPDEST PUSH1 0x20 DUP4 ADD SWAP2 POP DUP4 PUSH1 0x20 DUP3 DUP6 ADD ADD GT ISZERO PUSH2 0x698 JUMPI PUSH1 0x0 DUP1 REVERT JUMPDEST SWAP3 POP SWAP3 SWAP1 POP JUMP JUMPDEST PUSH1 0x0 DUP1 PUSH1 0x0 DUP1 PUSH1 0x40 DUP6 DUP8 SUB SLT ISZERO PUSH2 0x6B5 JUMPI PUSH1 0x0 DUP1 REVERT JUMPDEST DUP5 CALLDATALOAD PUSH8 0xFFFFFFFFFFFFFFFF DUP1 DUP3 GT ISZERO PUSH2 0x6CD JUMPI PUSH1 0x0 DUP1 REVERT JUMPDEST PUSH2 0x6D9 DUP9 DUP4 DUP10 ADD PUSH2 0x656 JUMP JUMPDEST SWAP1 SWAP7 POP SWAP5 POP PUSH1 0x20 DUP8 ADD CALLDATALOAD SWAP2 POP DUP1 DUP3 GT ISZERO PUSH2 0x6F2 JUMPI PUSH1 0x0 DUP1 REVERT JUMPDEST POP PUSH2 0x6FF DUP8 DUP3 DUP9 ADD PUSH2 0x656 JUMP JUMPDEST SWAP6 SWAP9 SWAP5 SWAP8 POP SWAP6 POP POP POP POP JUMP JUMPDEST PUSH1 0x0 JUMPDEST DUP4 DUP2 LT ISZERO PUSH2 0x726 JUMPI DUP2 DUP2 ADD MLOAD DUP4 DUP3 ADD MSTORE PUSH1 0x20 ADD PUSH2 0x70E JUMP JUMPDEST POP POP PUSH1 0x0 SWAP2 ADD MSTORE JUMP JUMPDEST PUSH1 0x20 DUP2 MSTORE PUSH1 0x0 DUP3 MLOAD DUP1 PUSH1 0x20 DUP5 ADD MSTORE PUSH2 0x74E DUP2 PUSH1 0x40 DUP6 ADD PUSH1 0x20 DUP8 ADD PUSH2 0x70B JUMP JUMPDEST PUSH1 0x1F ADD PUSH1 0x1F NOT AND SWAP2 SWAP1 SWAP2 ADD PUSH1 0x40 ADD SWAP3 SWAP2 POP POP JUMP JUMPDEST PUSH4 0x4E487B71 PUSH1 0xE0 SHL PUSH1 0x0 MSTORE PUSH1 0x11 PUSH1 0x4 MSTORE PUSH1 0x24 PUSH1 0x0 REVERT JUMPDEST DUP1 DUP3 ADD DUP1 DUP3 GT ISZERO PUSH2 0x78B JUMPI PUSH2 0x78B PUSH2 0x762 JUMP JUMPDEST SWAP3 SWAP2 POP POP JUMP JUMPDEST DUP2 DUP4 MSTORE DUP2 DUP2 PUSH1 0x20 DUP6 ADD CALLDATACOPY POP PUSH1 0x0 DUP3 DUP3 ADD PUSH1 0x20 SWAP1 DUP2 ADD SWAP2 SWAP1 SWAP2 MSTORE PUSH1 0x1F SWAP1 SWAP2 ADD PUSH1 0x1F NOT AND SWAP1 SWAP2 ADD ADD SWAP1 JUMP JUMPDEST PUSH1 0x1 DUP2 DUP2 SHR SWAP1 DUP3 AND DUP1 PUSH2 0x7CE JUMPI PUSH1 0x7F DUP3 AND SWAP2 POP JUMPDEST PUSH1 0x20 DUP3 LT DUP2 SUB PUSH2 0x650 JUMPI PUSH4 0x4E487B71 PUSH1 0xE0 SHL PUSH1 0x0 MSTORE PUSH1 0x22 PUSH1 0x4 MSTORE PUSH1 0x24 PUSH1 0x0 REVERT JUMPDEST PUSH1 0x0 PUSH1 0x2 DUP9 LT PUSH2 0x80E JUMPI PUSH4 0x4E487B71 PUSH1 0xE0 SHL PUSH1 0x0 MSTORE PUSH1 0x21 PUSH1 0x4 MSTORE PUSH1 0x24 PUSH1 0x0 REVERT JUMPDEST DUP8 DUP3 MSTORE PUSH1 0x20 PUSH1 0x80 DUP2 DUP5 ADD MSTORE PUSH2 0x827 PUSH1 0x80 DUP5 ADD DUP9 DUP11 PUSH2 0x791 JUMP JUMPDEST DUP4 DUP2 SUB PUSH1 0x40 DUP6 ADD MSTORE PUSH2 0x83A DUP2 DUP8 DUP10 PUSH2 0x791 JUMP JUMPDEST SWAP1 POP DUP4 DUP2 SUB PUSH1 0x60 DUP6 ADD MSTORE PUSH1 0x0 DUP6 SLOAD DUP2 PUSH1 0x1 DUP3 DUP2 SHR SWAP2 POP DUP1 DUP4 AND DUP1 PUSH2 0x85F JUMPI PUSH1 0x7F DUP4 AND SWAP3 POP JUMPDEST DUP7 DUP4 LT DUP2 SUB PUSH2 0x87C JUMPI PUSH4 0x4E487B71 PUSH1 0xE0 SHL DUP6 MSTORE PUSH1 0x22 PUSH1 0x4 MSTORE PUSH1 0x24 DUP6 REVERT JUMPDEST DUP3 DUP7 MSTORE PUSH1 0x20 DUP7 ADD SWAP6 POP DUP1 DUP1 ISZERO PUSH2 0x899 JUMPI PUSH1 0x1 DUP2 EQ PUSH2 0x8AF JUMPI PUSH2 0x8DA JUMP JUMPDEST PUSH1 0xFF NOT DUP6 AND DUP8 MSTORE DUP4 ISZERO ISZERO PUSH1 0x5 SHL DUP8 ADD SWAP6 POP PUSH2 0x8DA JUMP JUMPDEST PUSH1 0x0 DUP12 DUP2 MSTORE PUSH1 0x20 SWAP1 KECCAK256 PUSH1 0x0 JUMPDEST DUP6 DUP2 LT ISZERO PUSH2 0x8D4 JUMPI DUP2 SLOAD DUP10 DUP3 ADD MSTORE SWAP1 DUP5 ADD SWAP1 DUP10 ADD PUSH2 0x8BB JUMP JUMPDEST DUP9 ADD SWAP7 POP POP JUMPDEST POP SWAP4 SWAP15 SWAP14 POP POP POP POP POP POP POP POP POP POP POP POP POP POP JUMP JUMPDEST PUSH4 0x4E487B71 PUSH1 0xE0 SHL PUSH1 0x0 MSTORE PUSH1 0x41 PUSH1 0x4 MSTORE PUSH1 0x24 PUSH1 0x0 REVERT JUMPDEST PUSH1 0x0 DUP3 PUSH1 0x1F DUP4 ADD SLT PUSH2 0x915 JUMPI PUSH1 0x0 DUP1 REVERT JUMPDEST DUP2 MLOAD PUSH8 0xFFFFFFFFFFFFFFFF DUP1 DUP3 GT ISZERO PUSH2 0x930 JUMPI PUSH2 0x930 PUSH2 0x8EE JUMP JUMPDEST PUSH1 0x40 MLOAD PUSH1 0x1F DUP4 ADD PUSH1 0x1F NOT SWAP1 DUP2 AND PUSH1 0x3F ADD AND DUP2 ADD SWAP1 DUP3 DUP3 GT DUP2 DUP4 LT OR ISZERO PUSH2 0x958 JUMPI PUSH2 0x958 PUSH2 0x8EE JUMP JUMPDEST DUP2 PUSH1 0x40 MSTORE DUP4 DUP2 MSTORE DUP7 PUSH1 0x20 DUP6 DUP9 ADD ADD GT ISZERO PUSH2 0x971 JUMPI PUSH1 0x0 DUP1 REVERT JUMPDEST PUSH2 0x982 DUP5 PUSH1 0x20 DUP4 ADD PUSH1 0x20 DUP10 ADD PUSH2 0x70B JUMP JUMPDEST SWAP7 SWAP6 POP POP POP POP POP POP JUMP JUMPDEST PUSH1 0x0 DUP1 PUSH1 0x40 DUP4 DUP6 SUB SLT ISZERO PUSH2 0x99F JUMPI PUSH1 0x0 DUP1 REVERT JUMPDEST DUP3 MLOAD DUP1 ISZERO ISZERO DUP2 EQ PUSH2 0x9AF JUMPI PUSH1 0x0 DUP1 REVERT JUMPDEST PUSH1 0x20 DUP5 ADD MLOAD SWAP1 SWAP3 POP PUSH8 0xFFFFFFFFFFFFFFFF DUP2 GT ISZERO PUSH2 0x9CC JUMPI PUSH1 0x0 DUP1 REVERT JUMPDEST PUSH2 0x9D8 DUP6 DUP3 DUP7 ADD PUSH2 0x904 JUMP JUMPDEST SWAP2 POP POP SWAP3 POP SWAP3 SWAP1 POP JUMP JUMPDEST DUP1 MLOAD PUSH1 0x1 PUSH1 0x1 PUSH1 0xA0 SHL SUB DUP2 AND DUP2 EQ PUSH2 0x9F9 JUMPI PUSH1 0x0 DUP1 REVERT JUMPDEST SWAP2 SWAP1 POP JUMP JUMPDEST PUSH1 0x0 DUP1 PUSH1 0x0 DUP1 PUSH1 0x0 DUP1 PUSH1 0x0 PUSH1 0xE0 DUP9 DUP11 SUB SLT ISZERO PUSH2 0xA19 JUMPI PUSH1 0x0 DUP1 REVERT JUMPDEST PUSH2 0xA22 DUP9 PUSH2 0x9E2 JUMP JUMPDEST SWAP7 POP PUSH1 0x20 DUP9 ADD MLOAD SWAP6 POP PUSH2 0xA37 PUSH1 0x40 DUP10 ADD PUSH2 0x9E2 JUMP JUMPDEST SWAP5 POP PUSH1 0x60 DUP9 ADD MLOAD SWAP4 POP PUSH1 0x80 DUP9 ADD MLOAD SWAP3 POP PUSH1 0xA0 DUP9 ADD MLOAD SWAP2 POP PUSH1 0xC0 DUP9 ADD MLOAD PUSH8 0xFFFFFFFFFFFFFFFF DUP2 GT ISZERO PUSH2 0xA68 JUMPI PUSH1 0x0 DUP1 REVERT JUMPDEST PUSH2 0xA74 DUP11 DUP3 DUP12 ADD PUSH2 0x904 JUMP JUMPDEST SWAP2 POP POP SWAP3 SWAP6 SWAP9 SWAP2 SWAP5 SWAP8 POP SWAP3 SWAP6 POP JUMP JUMPDEST PUSH1 0x0 PUSH1 0x1 DUP3 ADD PUSH2 0xA95 JUMPI PUSH2 0xA95 PUSH2 0x762 JUMP JUMPDEST POP PUSH1 0x1 ADD SWAP1 JUMP JUMPDEST DUP2 DUP2 SUB DUP2 DUP2 GT ISZERO PUSH2 0x78B JUMPI PUSH2 0x78B PUSH2 0x762 JUMP JUMPDEST PUSH1 0x0 DUP3 MLOAD PUSH2 0xAC1 DUP2 DUP5 PUSH1 0x20 DUP8 ADD PUSH2 0x70B JUMP JUMPDEST SWAP2 SWAP1 SWAP2 ADD SWAP3 SWAP2 POP POP JUMP JUMPDEST DUP1 DUP3 MUL DUP2 ISZERO DUP3 DUP3 DIV DUP5 EQ OR PUSH2 0x78B JUMPI PUSH2 0x78B PUSH2 0x762 JUMP JUMPDEST PUSH4 0x4E487B71 PUSH1 0xE0 SHL PUSH1 0x0 MSTORE PUSH1 0x32 PUSH1 0x4 MSTORE PUSH1 0x24 PUSH1 0x0 REVERT INVALID LOG2 PUSH5 0x6970667358 0x22 SLT KECCAK256 0x2B DUP10 0xAC PUSH30 0x3FDC5916BD73BE26554A3C603B4C3BE7350017DED26A28F52F52A55A6473 PUSH16 0x6C634300081200330000000000000000 "},"methodIdentifiers":{"execute(bytes,bytes)":"1f6a1eb9","mainchainAddress()":"d75b501c","nonce()":"affed0e0"}}}}}